:10000000B7C10000E6C10000E4C10000E2C1000089
:10001000E0C10000DEC10000DCC10000DAC1000068
:10002000D8C100000C94FE130C94FE130C94FE1324
:10003000D0C10000CEC10000CCC10000CAC1000088
:10004000C8C100000C942419C4C10000C2C1000042
:10005000C0C10000BEC10000BCC100000C943D1B2B
:10006000B8C100000C94D11E0C94071FB2C100004F
:10007000B0C10000AEC10000ACC10000AAC10000C8
:100080000C945119A6C10000A4C10000A2C1000037
:100090000C947C1F0C94B21F9CC100000C94371769
:1000A00098C1000096C100000C947E1992C1000016
:1000B00090C100008EC100008CC100000C94AB19EF
:1000C00088C1000086C1000084C100000C94272074
:1000D0000C945D207EC100000C94D2200C94082169
:1000E00078C100008E1C911C801C841C8A1CC81CBA
:1000F000951C991C9F1CA31CA71CAD1CB11CB51CF6
:10010000C81CBB1CBF1CC31C3B003B0000000A0BEF
:1001100002090C0D0E080703040100000000000096
:1001200000000000000000000000000000000000CF
:10013000000000000000000012111000000000008C
:1001400000000000000000000000000000000000AF
:1001500000000102102020080810204010204080DC
:10016000020102010804020101020408102040807B
:100170008040201008040201800402018040201009
:100180000804020108040201010204081020408052
:100190000102040810204080050505050705080830
:1001A0000808020202020A0A080804040404010101
:1001B0000101010101010303030303030303040716
:1001C00007070C0C0C0C0C0C0C0C020202020606AD
:1001D0000606060606060B0B0B0B0B0B0B0B0000A3
:1001E00020002300260029002C002F0032000001EF
:1001F000000003010601090100002200250028007B
:100200002B002E003100340002010000050108011E
:100210000B0100002100240027002A002D003000DF
:10022000330001010000040107010A014E414E495B
:100230004E495459494E46CDCCCC3D0AD7233C17A4
:10024000B7D13877CC2B329595E6241FB14F0A00F1
:100250000020410000C84200401C4620BCBE4CCAE1
:100260001B0E5AAEC59D7400407A10F35A00A0725E
:100270004E18090010A5D4E80000E87648170000E1
:10028000E40B54020000CA9A3B000000E1F50500AF
:100290000080969800000040420F000000A08601F8
:1002A000000000102700000000E8030000000064C8
:1002B00000000000000A0000000000010000000033
:1002C000002C76D888DC674F0823DFC1DFAE59E108
:1002D000B1B796E5E3E453C63AE651997696E8E677
:1002E000C28426EB898C9B62ED407C6FFCEFBC9C4A
:1002F0009F40F2BAA56FA5F490055A2AF75C936B5C
:100300006CF9676DC11BFCE0E40D47FEF520E6B516
:1003100000D0ED902E0300943577050080841E08F0
:100320000000204E0A000000C80C333333330F980E
:100330006E12831141EF8D2114893BE65516CFFED5
:10034000E6DB18D1844B381BF77C1D901DA4BBE461
:1003500024203284725E228100C9F124ECA1E53DA3
:100360002700580A5016391FE41F8F203A21A50A8A
:1003700011241FBECFEFD1E2DEBFCDBF00E00CBF26
:1003800013E0A0E0B2E0E4EEFDE500E00BBF02C048
:1003900007900D92A833B107D9F729E0A8E3B3E09D
:1003A00001C01D92A436B207E1F713E0CEE6D3E018
:1003B00000E006C022970109FE010BBF0E94CA2778
:1003C000C236D10780E00807A9F70E94C8240C9420
:1003D000E12E16CECF92DF92EF92FF920F931F93F2
:1003E000E82FF92F05C0015011092109310961F1E8
:1003F000908196239417B9F305C001501109210982
:10040000310911F1908196239413F7CFC12CD12C8F
:10041000E12CF12C0AC08FEFC81AD80AE80AF80AB2
:100420000C151D052E053F0579F080818623841764
:1004300091F36C2D7D2D8E2D9F2D1F910F91FF908F
:10044000EF90DF90CF90089560E070E080E090E062
:100450001F910F91FF90EF90DF90CF900895CF9371
:10046000DF93EB01BC0184E298E00E94DE21BE0133
:1004700084E298E00E94DE216AE071E084E298E084
:10048000DF91CF910C94EF2182309105A9F40E9465
:10049000871B6093420470934304809344049093B9
:1004A00045040E94871B60933E0470933F04809331
:1004B00040049093410408950197A1F40E94871B82
:1004C00060934A0470934B0480934C0490934D04C2
:1004D0000E94871B609346047093470480934804EE
:1004E00090934904089568EC70E088E394E00E94DA
:1004F000822268EC70E082E394E00C948222CF9335
:10050000DF939C01CB01EA012130310521F4BA01CE
:10051000DF91CF91A4CF2230310589F487E897E0AD
:100520000E94DE21BE0187E897E00E94DE2168E09C
:1005300071E087E897E0DF91CF910C94BB21DF91C8
:10054000CF910895EF92FF920F931F93CF93DF9374
:10055000CDB7DEB72C970FB6F894DEBF0FBECDBF78
:100560008C017B01BA014AE0CE0107960E94032369
:10057000B701CE0101960E94E522AE01495F5F4FAF
:10058000BE016F5F7F4FC801BADFCE0101960E94A6
:100590005422CE0107960E9454222C960FB6F8944E
:1005A000DEBF0FBECDBFDF91CF911F910F91FF90A6
:1005B000EF900895CF92DF92EF92FF920F931F93E7
:1005C000CF93DF93CDB7DEB72C970FB6F894DEBF8D
:1005D0000FBECDBF0E94871B6B017C0180914E0432
:1005E00090914F04A0915004B0915104970186015D
:1005F000081B190B2A0B3B0BD901C801893B9B40F7
:10060000A105B10508F447C060910B0270910C027E
:100610004AE0CE0107960E9403236EE072E0CE010D
:1006200001960E94BB22AE01495F5F4FBE016F5F22
:100630007F4F82E090E063DFCE0101960E9454225A
:10064000CE0107960E94542260910B0270910C0219
:100650004AE0CE0107960E9403236EE072E0CE01CD
:1006600001960E94BB22BE01695F7F4FCE010196B9
:10067000F6DECE0101960E945422CE0107960E941A
:1006800054220E94871B60934E0470934F04809302
:1006900050049093510440914A0450914B0460914E
:1006A0004C0470914D048091460490914704A091B0
:1006B0004804B0914904411551056105710571F077
:1006C00097018601041B150B260B370BB901A801F6
:1006D00040345C496105710508F464C0A7019601C6
:1006E000281B390B4A0B5B0BDA01C901883893418F
:1006F000A105B105A0F161E172E0CE0101960E9471
:10070000BB226EE072E0CE0107960E94BB22BE01C2
:100710006F5F7F4FCE010796A2DECE0107960E9443
:100720005422CE0101960E94542263E172E0CE0170
:1007300001960E94BB2241E050E0BE016F5F7F4FF7
:1007400082E090E0FFDECE0101960E945422C0922A
:100750004604D0924704E0924804F0924904809104
:100760004A0490914B04A0914C04B0914D04009721
:10077000A105B10509F445C097018601081B190BB5
:100780002A0B3B0BD901C80180349C49A105B10556
:10079000C0F181E090E090930C0280930B02809373
:1007A0000A022FC0A7019601281B390B4A0B5B0BCD
:1007B000DA01C90180329E44A105B10510F161E161
:1007C00072E0CE0101960E94BB226EE072E0CE0183
:1007D00007960E94BB22BE016F5F7F4FCE01079636
:1007E0003EDECE0107960E945422CE0101960E9461
:1007F0005422C0924604D0924704E0924804F092FA
:1008000049048091420490914304A0914404B09122
:1008100045040097A105B105A1F0C816D906EA065E
:10082000FB0609F470C097018601081B190B2A0BFF
:100830003B0BD901C80180321EE49107A105B10527
:10084000E8F080913E0490913F04A0914004B09163
:100850004104C816D906EA06FB0609F454C0A701EC
:100860009601281B390B4A0B5B0BDA01C90188384A
:100870009341A105B10508F446C020C080319742DC
:10088000A105B10508F43FC080913E0490913F045A
:10089000A0914004B0914104C816D906EA06FB06AF
:1008A00091F197018601081B190B2A0B3B0BD9010B
:1008B000C80188389341A105B10528F161E172E0D2
:1008C000CE0101960E94BB226EE072E0CE01079637
:1008D0000E94BB22AE014F5F5F4FBE01695F7F4F39
:1008E00082E090E00CDECE0107960E945422CE01F9
:1008F00001960E945422C0923E04D0923F04E0929E
:100900004004F09241042C960FB6F894DEBF0FBE5F
:10091000CDBFDF91CF911F910F91FF90EF90DF90AE
:10092000CF90089560E087E10E94C91C60E086E1F5
:100930000C94C91C4F925F926F927F928F929F92FC
:10094000AF92BF92CF92DF92EF92FF920F931F93DD
:100950004B015C0129013A01C801B70120E030E0F8
:100960004AE753E40E943F256B017C0120E030E020
:1009700040E85FE30E94E626181634F4C12CD12C1F
:1009800080E8E82E8FE3F82EA701960160E070E082
:1009900080E89FE30E94D624A30192010E94EA26E8
:1009A0002B013C01A5019401C701B6010E94EA2672
:1009B0009B01AC01C301B2010E94D7241F910F918A
:1009C000FF90EF90DF90CF90BF90AF909F908F906F
:1009D0007F906F905F904F900895CF92DF92EF924B
:1009E000FF920F931F93CF93DF93CCE7D3E090E771
:1009F000E92E93E0F92E08E813E028EBC22E2BE055
:100A0000D22EC992D992F701C192D1927F0169E2A7
:100A100073E0C8010E94ED220A5F1F4FF3E0C8385F
:100A2000DF0779F78CE895E00E94C91540E855E2A8
:100A300060E070E08BED93E00E942C0E66E172E0C6
:100A40008BED93E00E94450E68E472E08BED93E03D
:100A5000DF91CF911F910F91FF90EF90DF90CF909A
:100A60000C94450ECF92DF92EF92FF920F931F935B
:100A7000CF93DF937C016B010CEA13E0C0E0D0E080
:100A8000B801C7010E941A24882399F026E02C9F00
:100A9000C0012D9F900D1124B60188579C4FDF9106
:100AA000CF911F910F91FF90EF90DF90CF900C941A
:100AB000D02221960A5F1F4FC630D10509F7DF917A
:100AC000CF911F910F91FF90EF90DF90CF900895FD
:100AD0002F923F924F925F926F927F928F929F924E
:100AE000AF92BF92CF92DF92EF92FF920F931F933C
:100AF000CF93DF93CDB7DEB72E970FB6F894DEBF56
:100B00000FBECDBF0E94871B2B013C0148E5A42EE0
:100B100043E0B42E5CE7252E53E0352E08E813E0C1
:100B20006CEAC62E63E0D62E70E4E72E73E0F72E53
:100B300040E753E05E874D87E6E08E2E912CF10171
:100B4000219131911F01F50180819181A201481B02
:100B5000590BCA0157FF03C09195819591098217DE
:100B6000930754F0232B41F069E273E0C8010E941F
:100B70002C24882309F44AC0ED85FE85219131910A
:100B8000FE87ED87F70180819181A201481B590BF7
:100B9000CA0157FF03C09195819591098217930768
:100BA00054F0232B41F069E273E0C8010E942C2429
:100BB000882309F44CC051E0851A910884E0A80EFE
:100BC000B11C0A5F1F4F96E0C90ED11CE4E0EE0E87
:100BD000F11C8114910409F0B2CF2E960FB6F8944F
:100BE000DEBF0FBECDBFDF91CF911F910F91FF9060
:100BF000EF90DF90CF90BF90AF909F908F907F90BD
:100C00006F905F904F903F902F900895B801CE0164
:100C100001960E94E522B601CE0107960E94E522C8
:100C2000AE014F5F5F4FBE01695F7F4F82E090E092
:100C300066DCCE0107960E945422CE0101960E94E6
:100C40005422F501408251826282738295CFB801AD
:100C5000CE0101960E94E522B601CE0107960E94C0
:100C6000E522BE016F5F7F4FCE010796F8DBCE0114
:100C700007960E945422CE0101960E945422F70149
:100C8000408251826282738296CFAF92BF92CF929E
:100C9000DF92EF92FF920F931F93CF93DF936C013C
:100CA0005B018A01BCEAEB2EB3E0FB2EC0E0D0E092
:100CB000B701C5010E941A248823D9F082E0C81622
:100CC000D10469F40115110529F00A3F110514F446
:100CD0000AEF10E0CC0FDD1FC458DC4F07C0CA94E8
:100CE000CD2871F4CC0FDD1FC059DC4F1983088368
:100CF00007C0219686E0E80EF11CC630D105C1F68A
:100D0000DF91CF911F910F91FF90EF90DF90CF90E7
:100D1000BF90AF90089568E070E08DE393E00E948B
:100D2000A21A67E070E08AE393E00C94A21ACF93D2
:100D3000DF9300D000D0CDB7DEB726E040E051EE23
:100D400060E070E08AEE96E00E946F1E26E040E0D0
:100D500051EE60E070E087E897E00E946F1E26E0A9
:100D600040E855E260E070E084E298E00E946F1E87
:100D7000BADBD1DF32DED6DD64E670E080E090E001
:100D80000E94B61B69E572E0CE0101960E94BB226B
:100D900041E050E0BE016F5F7F4F81E090E0D2DB29
:100DA000CE0101960E94542269E572E0CE010196BF
:100DB0000E94BB2241E050E0BE016F5F7F4F82E0A6
:100DC00090E0C0DBCE0101960E94542226960FB619
:100DD000F894DEBF0FBECDBFDF91CF910895853B64
:100DE000910514F084EB90E0BC0197FF02C060E035
:100DF00070E08DE393E00C94DA1A8F929F92AF9299
:100E0000BF92CF92DF92EF92FF920F931F93CF93F7
:100E1000DF9300D01F92CDB7DEB720E533EC40E082
:100E200050E061E087E10E94371D6B017C01611594
:100E3000710509F46BC00E94871B80902E0490906E
:100E40002F04A0903004B0903104681979098A0900
:100E50009B090E94D8254B015C0160912A04709186
:100E60002B04882777FD8095982F0E94DA259B0117
:100E7000AC01B601882777FD8095982F29833A83A6
:100E80004B835C830E94DA258501740129813A81B4
:100E90004B815C814FDD0E94A725653424E07207F9
:100EA0003CF0633687E078072CF062E677E002C01A
:100EB00065E474E0CB01845C95404F9710F463EDDA
:100EC00075E0882777FD8095982F1F921F921F92BB
:100ED0001F9214EBA12EB12CC12CD12C1CE4E12EBD
:100EE00014E0F12E00E010E028E537E040E050E0AB
:100EF0000E940F226B017C01CB0171DFD0922B0489
:100F0000C0922A040F900F900F900F900F900F90A7
:100F10000F900F90DF91CF911F910F91FF90EF9065
:100F2000DF90CF90BF90AF909F908F900895CF9318
:100F3000DF93853B910514F084EB90E0EC0197FF83
:100F400002C0C0E0D0E080913803909139039E0147
:100F5000281B390BC90137FF03C091958195910971
:100F600003974CF0BE018AE393E00E94DA1AD09313
:100F70003903C0933803DF91CF910895AF92BF92A8
:100F8000CF92DF92EF92FF920F931F93CF93DF9355
:100F9000CDB7DEB72C970FB6F894DEBF0FBECDBF2E
:100FA0005C018B017A0160E070E0CA010E945B2461
:100FB0008F3321F5F7012481358141E050E0B701FD
:100FC000CE0107960E947A24CE0107960E94BD2486
:100FD0006B017C01B801CE0101960E94E522A601B9
:100FE000BE016F5F7F4FC50150DECE0101960E94AA
:100FF0005422CE0107960E9454224FC06EE072E048
:10100000C8010E942C24882359F06AE572E0C701C8
:101010000E942C24882309F440C0C50135DA3DC064
:101020006CE572E0C8010E942C24811136C06FE586
:1010300072E0C8010E942C248823B1F0C7010E94ED
:10104000BD24613071058105910521F481E0809313
:101050000A0223C0C7010E94BD24672B682B692B9D
:10106000E1F410920A0219C062E672E0C8010E941F
:101070002C24882331F0C7010E94BD24CB01AFDEB0
:101080000CC065E672E0C8010E942C24882329F078
:10109000C7010E94BD24CB014ADF2C960FB6F894FD
:1010A000DEBF0FBECDBFDF91CF911F910F91FF909B
:1010B000EF90DF90CF90BF90AF900895EF92FF92A6
:1010C0000F931F93CF93DF93CDB7DEB72C970FB657
:1010D000F894DEBF0FBECDBF8C017B0168E672E0E5
:1010E0000E942C24882349F1B701CE0101960E9469
:1010F000E522B801CE0107960E94E522BE016F5F8E
:101100007F4FCE010796ABD9CE0107960E9454229D
:10111000CE0101960E9454226FE072E0C7010E9446
:101120002C24882309F44AC081E090E090930C02BB
:1011300080930B0280930A0241C06BE672E0C80103
:101140000E942C2481110EC06EE672E0C8010E943C
:101150002C24811107C061E772E0C8010E942C2491
:10116000882389F0B701CE0101960E94E522B801DB
:10117000CE0107960E94E522BE016F5F7F4FCE0130
:1011800007966DD913C0B701CE0101960E94E522E2
:10119000B801CE0107960E94E522AE014F5F5F4F76
:1011A000BE01695F7F4F82E090E0E8DECE010796E6
:1011B0000E945422CE0101960E9454222C960FB612
:1011C000F894DEBF0FBECDBFDF91CF911F910F917D
:1011D000FF90EF900895EF92FF920F931F93CF939C
:1011E000DF93CDB7DEB72C970FB6F894DEBF0FBEF6
:1011F000CDBF8C017B0168E672E00E942C2488231D
:1012000001F16AE572E0C7010E942C24882341F0B5
:1012100082E090E090930C0280930B0210920A02FD
:101220006FE072E0C7010E942C24882309F469C092
:1012300081E090E090930C0280930B0280930A026D
:1012400060C064E772E0C8010E942C2481112AC0AA
:1012500067E772E0C8010E942C24811123C06BE66D
:1012600072E0C8010E942C2481111CC06EE672E05D
:10127000C8010E942C24811115C061E772E0C801E9
:101280000E942C2481110EC06AE772E0C8010E94FE
:101290002C24811107C06DE772E0C8010E942C2444
:1012A0008823A1F0B701CE0101960E94E522B80182
:1012B000CE0107960E94E522AE014F5F5F4FBE014F
:1012C000695F7F4F82E090E01AD913C0B701CE0169
:1012D00001960E94E522B801CE0107960E94E52200
:1012E000AE014F5F5F4FBE01695F7F4F81E090E0CD
:1012F00045DECE0107960E945422CE0101960E943F
:1013000054222C960FB6F894DEBF0FBECDBFDF91EE
:10131000CF911F910F91FF90EF9008958F929F9220
:10132000AF92BF92CF92DF92EF92FF920F931F93F3
:10133000CF93DF9300D01F92CDB7DEB720E533EC1B
:1013400040E050E061E086E10E94371D6B017C01C6
:10135000693E23E072070CF472C00E94871B8090E4
:101360002E0490902F04A0903004B090310468199E
:1013700079098A099B090E94D8254B015C0160917B
:101380002C0470912D04882777FD8095982F0E945A
:10139000DA259B01AC01B601882777FD8095982F4F
:1013A00029833A834B835C830E94DA25850174018B
:1013B00029813A814B815C81BDDA0E94A725709317
:1013C0002D0460932C046C34E4E07E073CF0693516
:1013D000F7E07F072CF068E577E002C06CE474E08A
:1013E000882777FD8095982F1F921F921F921F923A
:1013F00034EBA32EB12CC12CD12C1CE4E12E14E033
:10140000F12E00E010E028E537E040E050E00E94D7
:101410000F220F900F900F900F90CB010F900F9015
:101420000F900F90DF91CF911F910F91FF90EF9050
:10143000DF90CF90BF90AF909F908F9078CD0F901E
:101440000F900F900F90DF91CF911F910F91FF9010
:10145000EF90DF90CF90BF90AF909F908F900895C6
:101460000F931F930E94871B00912E0410912F044D
:101470002091300430913104601B710B820B930B6F
:10148000623371058105910580F080910A028823FD
:1014900061F044DFB2DC0E94871B60932E047093DE
:1014A0002F0480933004909331041F910F9108957D
:1014B000CF93DF9369E273E088E394E00E94BB225C
:1014C00069E273E082E394E00E94BB2261EC78E081
:1014D0008BED93E0B1D360E872E08CEA93E00E9478
:1014E000BB2263E872E082EB93E00E94BB2266E8D5
:1014F00072E088EB93E00E94BB2269E872E08EEB19
:1015000093E00E94BB226CE872E084EC93E00E94BE
:10151000BB226FE872E08AEC93E00E94BB22C8E82D
:10152000D3E069E273E0CE010E94BB22269683E0FD
:10153000CC3AD807B1F78DE393E00E94D8198AE33B
:1015400093E0DF91CF910C94D819CF93DF93CCEA3D
:10155000D3E02697CE010E94542283E0C838D807F2
:10156000C1F7C0EDD3E02697CE010E94542283E05C
:10157000CC3AD807C1F782E394E00E94542288E372
:1015800094E0DF91CF910C9454221F93CF93DF937B
:10159000CDB7DEB768970FB6F894DEBF0FBECDBFEC
:1015A00087E897E00E94631D892B09F4B6C087E89D
:1015B00097E00E947C1D182F682F88E394E00E941A
:1015C000AF231B3369F722E030E040E050E068E3EE
:1015D00074E0CE0143960E947A2462E972E0CE0163
:1015E00001960E94BB22BE016F5F7F4F88E394E0AB
:1015F0000E9477249C0142E050E068E374E0CE0151
:101600000D960E947A24CE0101960E945422BE01BA
:10161000635F7F4FCE0101960E94E522BE016D5EA1
:101620007F4FCE0107960E94E522BE016F5F7F4F7C
:10163000CE01079643DDCE0107960E945422CE01CB
:1016400001960E94542269E273E088E394E00E94CC
:10165000ED22CE010D960E945422CE0143960E94A7
:1016600054229ECF84E298E00E947C1D182F682FA0
:1016700082E394E00E94AF231B3309F04EC022E0C6
:1016800030E040E050E062E374E0CE0143960E9417
:101690007A2462E972E0CE0101960E94BB22BE016B
:1016A0006F5F7F4F82E394E00E9477249C0142E0C9
:1016B00050E062E374E0CE010D960E947A24CE01E0
:1016C00001960E945422BE01635F7F4FCE010196B6
:1016D0000E94E522BE016D5E7F4FCE0107960E94FB
:1016E000E522BE016F5F7F4FCE01079674DDCE010C
:1016F00007960E945422CE0101960E94542269E26C
:1017000073E082E394E00E94ED22CE010D960E94E8
:101710005422CE0143960E94542284E298E00E9413
:10172000631D892B09F09ECF68960FB6F894DEBF33
:101730000FBECDBFDF91CF911F910895AF92BF92A1
:10174000CF92DF92EF92FF920F931F93CF93DF938D
:10175000CDB7DEB762970FB6F894DEBF0FBECDBF30
:101760000E94871B0091D0031091D1032091D203D6
:101770003091D303601B710B820B930B64317105A5
:101780008105910508F459C180910A02882309F462
:1017900054C160E670E08CE895E00E94DC15E091B1
:1017A0008C05F0918D050190F081E02D61E08CE8D1
:1017B00095E019958CE895E00E944E1645E050E0C2
:1017C00060E670E08CE895E00E944C168CE895E0AD
:1017D0000E9434150597D4F38CE895E00E943C15DF
:1017E0008093D8038CE895E00E943C158093DA033F
:1017F0008CE895E00E943C158093D9038CE895E035
:101800000E943C158093D7038CE895E00E943C151C
:101810008093D6038091DA0390E0982F8827209157
:10182000D903820F911D9093D5038093D4036AE06E
:1018300070E00E9468274AE0CE0107960E942D239F
:1018400063E872E0CE0101960E94BB22BE01695F8F
:101850007F4FCE01019606D9CE0101960E945422F7
:10186000CE0107960E94542280911604882309F421
:10187000F4C069E273E0CE010D960E94BB22809114
:101880001304833531F464E972E0CE010D960E94B1
:10189000ED224091E3035091E4036091E5037091E0
:1018A000E60324E0CE0107960E945723BE01635F42
:1018B0007F4FCE0101960E94E522BE01695F7F4FF6
:1018C000CE0101960E94C22366E972E00E94D323F2
:1018D000BC01CE010D960E94D022CE0101960E943D
:1018E0005422CE0107960E9454228091140485341C
:1018F000B1F4BE01635F7F4FCE0101960E94E522E5
:1019000064E972E0CE0101960E94D323BC01CE01AE
:101910000D960E94D022CE0101960E945422409141
:10192000E7035091E8036091E9037091EA0324E032
:10193000CE0107960E945723BE01635F7F4FCE0101
:1019400001960E94E522BE01695F7F4FCE0101969C
:101950000E94C22366E972E00E94D323BC01CE013B
:101960000D960E94D022CE0101960E945422CE01F3
:1019700007960E945422BE01635F7F4FCE010196FD
:101980000E94E52260E872E0CE0107960E94BB2229
:10199000BE016F5F7F4FCE01079664D8CE010796D8
:1019A0000E945422CE0101960E945422CE010D962F
:1019B0000E94542281E00E94501CBC01882777FDC0
:1019C0008095982F1F921F9221E02F9328E62F9346
:1019D000A12CB12C6501EE24EA9413E0F12E00E075
:1019E00010E020E030E0A9010E940F224AE0CE0181
:1019F00007960E94032369E872E0CE0101960E94D7
:101A0000BB22BE01695F7F4FCE0101962BD8CE016C
:101A100001960E945422CE0107960E9454220E94F1
:101A2000871B6093D0037093D1038093D20390936C
:101A3000D3030F900F900F900F908BED93E03ED05B
:101A40008BED93E033D1882311F18BED93E031D10D
:101A5000BC018BED93E043D11AC06FE072E0CE0180
:101A600001960E94BB2260E872E0CE0107960E94B8
:101A7000BB22BE016F5F7F4FCE0107960E943205E9
:101A8000CE0107960E945422CE01019691CF629614
:101A90000FB6F894DEBF0FBECDBFDF91CF911F917F
:101AA0000F91FF90EF90DF90CF90BF90AF9008958F
:101AB0006CDD44DE0DD80E94DA02D2CCCF93DF93E6
:101AC000FC01E65BFF4F2081222311F080E065C01E
:101AD000EC01C55BDF4FA881B981109741F0ED9112
:101AE000FC9111970480F581E02DCD010BC0EC0134
:101AF000C35BDF4F88819981DC01ED91FC9104800B
:101B0000F581E02D1995892B09F388819981DC01F4
:101B1000ED91FC910680F781E02D19958A3049F509
:101B200090915704E0915504F0915604E90FF11D8E
:101B300010822091550430915604B4E0203D3B07BB
:101B400039F448E554E0509356044093550408C0D6
:101B500020ED34E0309356042093550428E534E01A
:101B600030935404209353041092570491E09093BF
:101B70005204E0915504F09156049091570421E0ED
:101B8000290F20935704E90FF11D8083909157048A
:101B9000983718F097E790935704DF91CF91089505
:101BA000FC01DC01A55BBF4F11961C921E921296A0
:101BB00011961C921E921092520413971C9210922E
:101BC000570480ED94E0909356048093550488E583
:101BD00094E0909354048093530415AE14AE158290
:101BE0001482138212821182108212AE11AE10AED4
:101BF00013AE1782168214AA15AA16AA17AA10AA3B
:101C000011AA12AA13AA14A615A616A617A610A6FC
:101C100011A612A613A614A215A216A217A210A20C
:101C200011A212A213A21486158616861786108694
:101C300011861286138608950F931F93CF93DF9317
:101C4000EC018B01ADDFC35BDF4F19830883DF91AC
:101C5000CF911F910F910895FC01E55BFF4F20810B
:101C600031812115310519F0C90146D608C0FC01A2
:101C7000E35BFF4F26E0808191810E946F1E6AE046
:101C800070E080E090E00C94B61BFC01E55BFF4F38
:101C9000208131812115310511F0C90105C0FC01F8
:101CA000E35BFF4F808191810C94FF21809152046E
:101CB0000895109252048091530490915404089511
:101CC00060335CF06A3314F480ED05C08FEB860F4F
:101CD000863018F489EC860F089580E008952F92DD
:101CE0003F924F925F926F927F928F929F92AF92AC
:101CF000BF92CF92DF92EF92FF920F931F93CF93F9
:101D0000DF93CDB7DEB72A970FB6F894DEBF0FBECC
:101D1000CDBF8C017B01FB0101900020E9F73197D9
:101D2000E61BF70B6F0124E0C21AD108DB01AC0DF2
:101D3000BD1D8C918A3251F55B01AE0EBF1EF501BF
:101D400033976081C801BCDF30E1839F30011124EB
:101D5000F50132976081C801B3DFD301A80FB11D2F
:101D6000CD0142E0242F30E02C153D0558F4F70159
:101D7000E20FF31F2081332727FD30958227932719
:101D80004F5FF0CF892B11F080E0E1C468E972E089
:101D9000C7010E94892A892B09F468C26CE270E0AD
:101DA000C7010E945F2A01961C010E94082A6B014C
:101DB0007C010E94AC254B015C0120E137E240E050
:101DC00050E00E947C27F801208344E6442E512CE9
:101DD000612C712CA30192010E947C27D8011196DD
:101DE0002C93C501B401A30192010E947C27F80144
:101DF000628320E030E040E85FE3C701B6010E9463
:101E00001C2620E030E04AE754E40E94EA260E94C3
:101E1000AC25D80117967C936E9316976CE270E010
:101E2000C1010E945F2A7C015C01BFEFAB1ABB0AB3
:101E3000FC0181818C3209F4A5C042E050E0B5017B
:101E4000CE0101960E947A2A1B82CE0101960E9441
:101E5000282A9B01AC0160E876E988E990E00E94BD
:101E60004D272B013C01B7016D5F7F4F42E050E0F1
:101E7000CE0101960E947A2A5701F6E0AF0EB11CFE
:101E800044E050E0B501CE0103960E947A2A1F82F9
:101E9000CE0101960E94282A9B01AC01A2E3B0E08A
:101EA0000E94C02723E030E040E050E00E949E27DF
:101EB00069017A01D301C201820F931FA41FB51FCC
:101EC000F801808B918BA28BB38BC301B20120EA06
:101ED00036E841E050E00E949E27CA01B9010E9405
:101EE000DA252B013C01C701B6010E94DA252CE955
:101EF00033E549EC56E30E94EA269B01AC01C3019D
:101F0000B2010E94D7246B017C01D80118966D9311
:101F10007D938D939C931B9720E030E048EC52E436
:101F20000E943F250E94A7252B013C0184E6849D49
:101F3000B001859D700D1124882777FD8095982F1D
:101F40000E94DA259B01AC01C701B6010E94D6248C
:101F500020E030E040E752E40E943F256B017C0125
:101F6000B201882777FD8095982F0E94DA259B0182
:101F7000AC01C701B6010E94D724F801608F718FB0
:101F8000828F938F6CE270E0C5010E945F2AFC0192
:101F9000019621812C3209F1233571F4D80158962C
:101FA0004D915D916D917C915B97705858964D93D2
:101FB0005D936D937C935B9721812E3419F4F80126
:101FC00020AF0BC0233521F4D801D8962C9305C03F
:101FD0002C3209F0D9CEF80110AE6CE270E00E940C
:101FE0005F2A7C015C01FFEFAF1ABF0ADC0111968A
:101FF0008C918C3209F4A5C043E050E0B501CE01CC
:1020000001960E947A2A1C82CE0101960E94282AFB
:102010009B01AC0160E876E988E990E00E944D27D9
:102020002B013C01B7016C5F7F4F42E050E0CE01D5
:1020300001960E947A2A5701B7E0AB0EB11C44E02A
:1020400050E0B501CE0103960E947A2A1F82CE018C
:1020500001960E94282A9B01AC01A2E3B0E00E94F5
:10206000C02723E030E040E050E00E949E27690155
:102070007A01D301C201820F931FA41FB51FF8017B
:10208000848B958BA68BB78BC301B20120EA36E80F
:1020900041E050E00E949E27CA01B9010E94DA2562
:1020A0002B013C01C701B6010E94DA252CE933E57A
:1020B00049EC56E30E94EA269B01AC01C301B20140
:1020C0000E94D7246B017C01D8011C966D937D93EF
:1020D0008D939C931F9720E030E048EC52E40E94DF
:1020E0003F250E94A7252B013C0184E6849DB00179
:1020F000859D700D1124882777FD8095982F0E946B
:10210000DA259B01AC01C701B6010E94D62420E06C
:1021100030E040E752E40E943F256B017C01B201B0
:10212000882777FD8095982F0E94DA259B01AC01C6
:10213000C701B6010E94D724F801648F758F868F7E
:10214000978F6CE270E0C5010E945F2AFC01019646
:1021500021812C3209F1273571F4D8015C964D911B
:102160005D916D917C915F9770585C964D935D93F6
:102170006D937C935F972181273519F4F80121AF86
:102180000BC0253421F4D801D9962C9305C02C32EC
:1021900009F0FACDF80111AE6CE270E00E945F2AFE
:1021A0007C01FFEFEF1AFF0ADC0111968C918C3253
:1021B00029F0C7010E940B2AF80184AF6CE270E09D
:1021C000C7010E945F2A7C01FFEFEF1AFF0ADC01C2
:1021D00011968C918C3229F0C7010E940B2AF801CC
:1021E00085AF6CE270E0C7010E945F2A7C01FFEFBF
:1021F000EF1AFF0ADC0111968C918C3241F0C70175
:102200000E94082AF80164AB75AB86AB97AB6CE211
:1022100070E0C7010E945F2A7C01FFEFEF1AFF0AFE
:10222000DC0111968C918C3241F0C7010E94082A82
:10223000F80164A375A386A397A36CE270E0C701BD
:102240000E945F2A6CE270E001960E945F2ADC0126
:1022500011962C912C3209F479C201960E94082A19
:10226000F80160A371A382A393A370C26FE972E027
:10227000C7010E94892A892B09F486CD6CE270E09F
:10228000C7010E945F2A01961C010E94082A6B0167
:102290007C010E94AC254B015C0120E137E240E06B
:1022A00050E00E947C27D8012C9334E6432E512C19
:1022B000612C712CA30192010E947C27F8012183DB
:1022C000C501B401A30192010E947C27D801129696
:1022D0006C9320E030E040E85FE3C701B6010E9464
:1022E0001C2620E030E04AE754E40E94EA260E94DF
:1022F000AC25F801778366836CE270E0C1010E942F
:102300005F2ADC0111962C91213421F421E0F8019F
:1023100023AF06C0263509F037CDD801DB961C92D5
:102320006CE270E001960E945F2A7C015C01BFEFC5
:10233000AB1ABB0AFC0181818C3209F4A5C042E0D2
:1023400050E0B501CE0101960E947A2A1B82CE018F
:1023500001960E94282A9B01AC0160E876E988E991
:1023600090E00E944D272B013C01B7016D5F7F4F2C
:1023700042E050E0CE0101960E947A2A5701F6E031
:10238000AF0EB11C44E050E0B501CE0103960E94AF
:102390007A2A1F82CE0101960E94282A9B01AC0155
:1023A000A2E3B0E00E94C02723E030E040E050E02C
:1023B0000E949E2769017A01D301C201820F931FF7
:1023C000A41FB51FF801808B918BA28BB38BC30127
:1023D000B20120EA36E841E050E00E949E27CA019F
:1023E000B9010E94DA252B013C01C701B6010E9408
:1023F000DA252CE933E549EC56E30E94EA269B01F5
:10240000AC01C301B2010E94D7246B017C01D80149
:1024100018966D937D938D939C931B9720E030E0ED
:1024200048EC52E40E943F250E94A7252B013C0165
:1024300084E6849DB001859D700D1124882777FD69
:102440008095982F0E94DA259B01AC01C701B60147
:102450000E94D62420E030E040E752E40E943F256D
:102460006B017C01B201882777FD8095982F0E942F
:10247000DA259B01AC01C701B6010E94D724F801FF
:10248000608F718F828F938F6CE270E0C5010E9424
:102490005F2AFC01019621812C3209F1233571F468
:1024A000D80158964D915D916D917C915B977058D4
:1024B00058964D935D936D937C935B9721812E3459
:1024C00019F4F80120AF0BC0233521F4D801D896B8
:1024D0002C9305C02C3209F057CCF80110AE6CE2F9
:1024E00070E00E945F2A7C015C01FFEFAF1ABF0A17
:1024F000DC0111968C918C3209F4A5C043E050E0C8
:10250000B501CE0101960E947A2A1C82CE01019665
:102510000E94282A9B01AC0160E876E988E990E0F6
:102520000E944D272B013C01B7016C5F7F4F42E0B9
:1025300050E0CE0101960E947A2A5701B7E0AB0E17
:10254000B11C44E050E0B501CE0103960E947A2A06
:102550001F82CE0101960E94282A9B01AC01A2E3B2
:10256000B0E00E94C02723E030E040E050E00E944D
:102570009E2769017A01D301C201820F931FA41F14
:10258000B51FF801848B958BA68BB78BC301B20165
:1025900020EA36E841E050E00E949E27CA01B901D6
:1025A0000E94DA252B013C01C701B6010E94DA2501
:1025B0002CE933E549EC56E30E94EA269B01AC0185
:1025C000C301B2010E94D7246B017C01D8011C9683
:1025D0006D937D938D939C931F9720E030E048ECA2
:1025E00052E40E943F250E94A7252B013C0184E66E
:1025F000849DB001859D700D1124882777FD8095FD
:10260000982F0E94DA259B01AC01C701B6010E94F8
:10261000D62420E030E040E752E40E943F256B01E1
:102620007C01B201882777FD8095982F0E94DA25DA
:102630009B01AC01C701B6010E94D724F801648F49
:10264000758F868F978F6CE270E0C5010E945F2ABC
:10265000FC01019621812C3209F1273571F4D80152
:102660005C964D915D916D917C915F9770585C96F1
:102670004D935D936D937C935F972181273519F47A
:10268000F80121AF0BC0253421F4D801D9962C9341
:1026900005C02C3209F078CBF80111AE6CE270E085
:1026A0000E945F2A7C01FFEFEF1AFF0ADC011196FE
:1026B0008C918C3241F0C7010E94082AF80160A772
:1026C00071A782A793A76CE270E0C7010E945F2AFE
:1026D0007C01FFEFEF1AFF0ADC0111968C918C321E
:1026E00041F0C7010E94082AF80164A775A786A7D0
:1026F00097A76CE270E0C7010E945F2ADC01119687
:102700002C912C3219F101960E94082A0E94AC25C6
:102710002B013C0120E137E240E050E00E947C27A1
:10272000F801258324E6C22ED12CE12CF12CA7013F
:1027300096010E947C27D80114962C93C301B20104
:10274000A70196010E947C27F801638381E02A9605
:102750000FB6F894DEBF0FBECDBFDF91CF911F91B2
:102760000F91FF90EF90DF90CF90BF90AF909F9030
:102770008F907F906F905F904F903F902F90089533
:10278000E0918A05F0918B05E817F90769F4A389B0
:10279000B4899C918589809589238C9310928B05AF
:1027A00010928A0581E0089580E00895CF93DF9329
:1027B000EC018A8D9B8D892BE9F080918A0590919F
:1027C0008B058C179D07B1F0009709F0D9DF8E8D2E
:1027D0008E7F8E8F1092490510924805D0938B05FD
:1027E000C0938A05EB89FC8980819D89892B808330
:1027F00081E001C080E0DF91CF9108951F920F9298
:102800000FB60F9211240BB60F922F933F934F9355
:102810005F936F937F938F939F93AF93BF93EF9348
:10282000FF93E0918A05F0918B05309709F451C030
:10283000868DA685B785958581FF04C08C918923F7
:1028400029F447C08C91892309F043C0A389B48936
:102850009C918589809589238C9386899789019796
:10286000F1F7208D318DA685B785758558E040E05C
:10287000C9010197F1F7842F90E095958795482F2E
:102880006C91672309F04068515091F7868D81FD66
:1028900040958091490590E001968F73992720918A
:1028A0004805281749F0A0914905B0E0A65BBA4F4A
:1028B0004C938093490503C0868D8160868F828DFD
:1028C000938D0197F1F7A389B4898C919589892B10
:1028D0008C93FF91EF91BF91AF919F918F917F91D9
:1028E0006F915F914F913F912F910F900BBE0F9081
:1028F0000FBE0F901F9018950F931F93CF93DF93E8
:10290000EC019A01AB011B8E1A8E198E188E1F8A4C
:102910001E8A60E079E08DE390E00E949E27C90165
:102920002430310520F0B9016350710902C061E023
:1029300070E07D8F6C8F1C8506EF010F043048F02E
:102940006EEC610F643028F062EC610F683008F0C3
:102950007DC0B901769567956431710518F06351B2
:10296000710902C061E070E07F8B6E8B069718F0F2
:10297000C901059702C081E090E0998F888FC90155
:10298000880F991F820F931F969587959695879527
:102990008D30910510F00C9702C081E090E09B8F84
:1029A0008A8F043060F08EEC810F843040F082EC2E
:1029B000810F883008F050C0A8E6B0E04FC0A8E60C
:1029C000B0E0E8E6F0E09081043028F01E531830C3
:1029D00010F484E001C081E0892B8C932C8536EFC4
:1029E000320F343058F08EEC820F843038F082ECA5
:1029F000820F883030F48DE690E005C08BE690E0E1
:102A000002C080E090E09C8B8B8B343010F4265019
:102A10000BC0223379F0233379F0243379F082EC40
:102A2000820F883068F4282F81E001C0880F2A9532
:102A3000EAF707C088E005C084E003C082E001C077
:102A400081E08D8B8C8D9D8D0197F1F7CE01DF910B
:102A5000CF911F910F91AACEA0E0B0E0883008F48A
:102A6000B0CFE0E0F0E0AFCF8091BC0590E02091E6
:102A7000BD05821B910908952091BD058091BC057B
:102A8000281750F4E22FF0E0E254FA4F808190E0F2
:102A90002F5F2093BD0508958FEF9FEF0895E0917C
:102AA000BD058091BC05E81730F4F0E0E254FA4F20
:102AB000808190E008958FEF9FEF08950895CF9261
:102AC000DF92EF92FF920F931F93CF93DF937C01DE
:102AD000CB018A0120919805222389F0EB016B013B
:102AE000C40ED51ECC15DD0561F06991D701ED91BD
:102AF000FC910190F081E02DC7011995F3CF642F6F
:102B00008DD1C801DF91CF911F910F91FF90EF9070
:102B1000DF90CF900895CF93DF931F92CDB7DEB7AC
:102B20006983209198052223D1F0209199052032C4
:102B300040F021E030E0FC013383228380E090E02C
:102B400014C080919A05E82FF0E0E556FA4F99817C
:102B500090838F5F80939A058093990504C061E00C
:102B6000CE0101965BD181E090E00F90DF91CF9193
:102B70000895FC011382128248EE53E060E070E099
:102B800044835583668377838BE093E091838083CE
:102B900008951092BD051092BC0510929A051092EE
:102BA000990581C081E0809398056093BB051092E0
:102BB0009A05109299050895F5CF0F93062F21E0FD
:102BC000409199056BE975E08091BB05D0D01092DA
:102BD0009A0510929905109298050F9108958F9279
:102BE0009F92AF92BF92CF92DF92EF92FF920F939C
:102BF0001F93CF93DF93EC01F62ED42E4801590199
:102C0000EE2009F1CFDF1E2D143008F013E0115033
:102C1000B8F0E881F98128E0129FB0011124A501E4
:102C2000940104C056954795379527956A95D2F734
:102C3000CA01B9010190F081E02DCE011995E7CFCD
:102C400060E0CE01BADF4D2D413208F040E22C2D7C
:102C50006EEB75E08F2D43D01092BD058093BC05BF
:102C6000DF91CF911F910F91FF90EF90DF90CF9068
:102C7000BF90AF909F908F900895CF92EF920F9357
:102C80001F93C22EE12C00E010E09801A8DF1F91F5
:102C90000F91EF90CF90089521E0EFCF61E08DCFBD
:102CA0008CE895E066CF10924B0681E08093490650
:102CB0001092480661E084E1A5D661E085E1A2D6E4
:102CC000E9EBF0E080818E7F808380818D7F80833F
:102CD00088E48093B80085E48093BC000895413275
:102CE00008F043C090914B069111FCCF91E0909376
:102CF0004B06209349062FEF2093DE051092230602
:102D0000240F2093220690934A0690914A06880F3A
:102D1000892B80934A0680914806813061F4109295
:102D2000480680914A068093BB008091BC0083FDD9
:102D3000F8CF85EC01C085EE8093BC0080914B06F6
:102D40008130E1F380912306841710F4409123062B
:102D500024E236E0FB01D9018A2F821B841718F484
:102D60008D918193F9CF842F089580E008950F937A
:102D7000413208F04AC090914B069111FCCF92E08D
:102D800090934B06009349069FEF9093DE051092B7
:102D9000230640932206FB0164E276E0DB019A2FD2
:102DA000961B941718F491919D93F9CF10924A06AF
:102DB00090914A06880F892B80934A068091480695
:102DC000813061F41092480680914A068093BB00DE
:102DD0008091BC0083FDF8CF85EC01C085EE809327
:102DE000BC00222321F080914B068230E1F38091D8
:102DF000DE058F3F61F08091DE05803251F08091D9
:102E0000DE05803341F483E007C081E005C080E047
:102E100003C082E001C084E00F910895613298F40C
:102E200020914B06243089F460930006FC0182E077
:102E300096E0DC012A2F281B261718F421912D93E8
:102E4000F9CF80E0089581E0089582E0089585ED4E
:102E50008093BC008091BC0084FDFCCF10924B0697
:102E6000089585EC8093BC0010924B0608951F9244
:102E70000F920FB60F9211240BB60F922F933F9320
:102E80004F935F936F937F938F939F93AF93BF9372
:102E9000EF93FF938091B900887F803609F49DC03D
:102EA00070F5883209F45CC090F4803109F455C0A3
:102EB00038F4882309F4F3C0883009F44EC0F2C016
:102EC000883109F44DC0803209F45EC0EBC0803413
:102ED00009F469C050F4803309F456C0883309F00E
:102EE000E1C08093DE05BDDFDDC0803509F44FC051
:102EF000883509F45DC0883409F0D4C0D2C088395F
:102F000009F4C3C0A8F4883709F467C038F48836D8
:102F100009F463C0803709F460C0C4C0883809F47C
:102F2000B4C0803909F45FC0803809F0BBC05BC011
:102F3000803B09F482C038F4803A09F466C0883ACC
:102F400009F47BC0AFC0803C09F4A3C0883C09F4FD
:102F5000A0C0883B09F486C0A5C080914A0610C075
:102F60009091230680912206981770F5E091230630
:102F700081E08E0F80932306F0E0EC5DF94F8081B5
:102F80008093BB0085EC82C08093DE058AC0E0910F
:102F9000230681E08E0F809323068091BB00F0E032
:102FA000EC5DF94F808390912306809122066AC0E0
:102FB000E091230681E08E0F809323068091BB0071
:102FC000F0E0EC5DF94F808380914906811169C082
:102FD00081E08093480684EA5DC083E080934B06DD
:102FE0001092DF05CFCF8091DF05803208F04DC011
:102FF000E091DF0581E08E0F8093DF058091BB00BB
:10300000F0E0E052FA4F8083BDCF2BDF8091DF05E7
:10301000803230F4E091DF05F0E0E052FA4F1082A8
:103020006091DF0570E0E0914406F091450680EE86
:1030300095E019951092DF0535C084E080934B062A
:103040001092010610920006E0914606F0914706A4
:10305000199580910006811105C081E080930006DA
:1030600010920206E091010681E08E0F8093010626
:10307000F0E0EE5FF94F80818093BB0090910106F4
:1030800080910006981708F47DCF85E88093BC00F6
:1030900009C085EC8093BC0010924B0603C01092CF
:1030A000DE05D5DEFF91EF91BF91AF919F918F919A
:1030B0007F916F915F914F913F912F910F900BBE38
:1030C0000F900FBE0F901F901895CF92DF92EF9246
:1030D000FF920F931F93CF93DF936C018B017A01C3
:1030E000EC01C35BD94F888187FF04C0FB011182CB
:1030F000108223C02CE02C9DC0012D9D900D112429
:103100002881AC01420F511D27FD5A9520914C0694
:1031100030E0421753078CF42881AC01420F511D57
:1031200027FD5A959A01FA01EE0FFF1FE20FF31FD8
:10313000EF5AF94F208126FD19C088818F5F88835F
:103140008CE08C9D90018D9D300D11248881A9010A
:10315000480F511D87FD5A9580914C0690E0481705
:103160005907ACF488818C3034F111C02881820F6A
:10317000911D27FD9A95FC01EE0FFF1FE80FF91F27
:10318000EF5AF94F808160E08F733CD4D6CFF801BD
:1031900080819181049680349C4918F480E49CE9F4
:1031A00004C0F801808191810496F70191838083A6
:1031B0008FEF888340C0F801808191814881B901F7
:1031C000640F711D47FD7A95AB01FB01EE0FFF1FE8
:1031D000E40FF51FEF5AF94F41815281840F951F7B
:1031E000F701918380838881A901480F511D87FDD4
:1031F0005A95FA01EE0FFF1FE40FF51FEF5AF94F32
:10320000808186FF18C08881280F311D87FD3A957F
:10321000F901EE0FFF1FE20FF31FEF5AF94F808104
:1032200061E08F73DF91CF911F910F91FF90EF902D
:10323000DF90CF90E7C3DF91CF911F910F91FF9067
:10324000EF90DF90CF9008951F920F920FB60F92DC
:1032500011240BB60F922F933F934F935F936F936D
:103260007F938F939F93AF93BF93EF93FF9348E820
:1032700050E064E870E081E090E027DFFF91EF919B
:10328000BF91AF919F918F917F916F915F914F917E
:103290003F912F910F900BBE0F900FBE0F901F907C
:1032A00018951F920F920FB60F9211240BB60F9222
:1032B0002F933F934F935F936F937F938F939F933E
:1032C000AF93BF93EF93FF9348E950E064E970E058
:1032D00082E090E0FADEFF91EF91BF91AF919F9174
:1032E0008F917F916F915F914F913F912F910F90AF
:1032F0000BBE0F900FBE0F901F9018951F920F924C
:103300000FB60F9211240BB60F922F933F934F934A
:103310005F936F937F938F939F93AF93BF93EF933D
:10332000FF9348EA50E064EA70E083E090E0CDDE8D
:10333000FF91EF91BF91AF919F918F917F916F918D
:103340005F914F913F912F910F900BBE0F900FBE49
:103350000F901F9018951F920F920FB60F92112485
:103360000BB60F922F933F934F935F936F937F937F
:103370008F939F93AF93BF93EF93FF9348E251E0F6
:1033800064E271E080E090E0A0DEFF91EF91BF91F8
:10339000AF919F918F917F916F915F914F913F91ED
:1033A0002F910F900BBE0F900FBE0F901F9018958E
:1033B00020914C062033A0F431E0320F30934C06BC
:1033C000FC012083822F90E0FC01EE0FFF1FE80F2D
:1033D000F91FEF5AF94F88EB9BE0928381830895A0
:1033E0002FEFFC0120830895DF92EF92FF920F935D
:1033F0001F93CF93DF93EC01D62E7A018901888148
:10340000803308F067C061E08D2DC3D28881A82F7A
:10341000B0E0FD01EE0FFF1FEA0FFB1FEF5AF94F5F
:103420002D2D2F739081907C922B908360E272E01F
:103430006E197F0977FF02C06D5F7F4F75956795A5
:1034400075956795698340E659E0401B510B57FF1E
:1034500002C04D5F5F4F55954795559547954A83F7
:103460006CE00E945C279CE0899FB001112420E061
:1034700030E0A901460F571FFA01EE0FFF1FE40FBE
:10348000F51FEF5AF94F908196FD18C02F5F3F4FFF
:103490002C30310571F790E08130910521F51092C3
:1034A000800082E080938100109285001092840059
:1034B000B19A80916F00826080936F00888190E064
:1034C000FC01EE0FFF1FE80FF91FEF5AF94F808143
:1034D000806480838881DF91CF911F910F91FF904D
:1034E000EF90DF9008958230910569F4109290007A
:1034F00082E080939100109295001092940088BB16
:1035000080937100DBCF8330910569F41092A000A5
:1035100082E08093A1001092A5001092A40089BBC4
:1035200080937200CBCF892B49F61092200182E064
:103530008093210110922501109224018ABB80936F
:103540007300BCCF20E639E040E252E04DCFFC01F1
:103550008081803370F5918128E830E0291B3109A2
:1035600097FD3395220F331F220F331F6217730706
:103570007CF0928128E532E0291B310997FD3395D3
:10358000220F331F220F331F621773070CF49B01A6
:1035900022503109220F331F4FB7F89490E0FC01FD
:1035A000EE0FFF1FE80FF91FEF5AF94F3283218307
:1035B0004FBF08954F925F926F927F92AF92BF92EA
:1035C000CF92DF92EF92FF920F931F93CF93DF93EF
:1035D000EC01603282E078070CF03FC077FD06C056
:1035E000653B71052CF064EB70E002C060E070E0B8
:1035F000898128E830E0281B310987FD3395220FA7
:10360000331F220F331F5901CC24B7FCC094DC2C8C
:10361000882777FD8095982F2A8148E552E0421B44
:10362000510927FD5395440F551F440F551F2A017B
:10363000662457FC6094762C7F926F925F924F9233
:1036400014EBE12EF12C00E010E020E030E0A901C5
:10365000E6D60F900F900F900F90CE01DF91CF9193
:103660001F910F91FF90EF90DF90CF90BF90AF90A0
:103670007F906F905F904F906ACF1F920F920FB61E
:103680000F9211242F933F938F939F93AF93BF93E8
:103690008091E2069091E306A091E406B091E506E0
:1036A0003091E10623E0230F2D3720F40196A11D70
:1036B000B11D05C026E8230F0296A11DB11D209360
:1036C000E1068093E2069093E306A093E406B093AC
:1036D000E5068091E6069091E706A091E806B09194
:1036E000E9060196A11DB11D8093E6069093E706B9
:1036F000A093E806B093E906BF91AF919F918F9197
:103700003F912F910F900FBE0F901F9018952FB7DC
:10371000F8946091E2067091E3068091E40690913E
:10372000E5062FBF08953FB7F8948091E606909183
:10373000E706A091E806B091E90626B5A89B05C06A
:103740002F3F19F00196A11DB11D3FBF6627782FAD
:10375000892F9A2F620F711D811D911D42E0660F06
:10376000771F881F991F4A95D1F708958F929F92CE
:10377000AF92BF92CF92DF92EF92FF926B017C01EA
:10378000D2DF4B015C01C114D104E104F104E9F082
:103790000E94D524C8DF681979098A099B09683E07
:1037A00073408105910578F321E0C21AD108E10840
:1037B000F10888EE880E83E0981EA11CB11CC1148C
:1037C000D104E104F10431F7DECFFF90EF90DF90F8
:1037D000CF90BF90AF909F908F900895789484B5CC
:1037E000826084BD84B5816084BD85B5826085BDFD
:1037F00085B5816085BDEEE6F0E0808181608083E3
:10380000E1E8F0E0108280818260808380818160C5
:103810008083E0E8F0E0808181608083E1EBF0E08C
:10382000808184608083E0EBF0E080818160808330
:10383000E1E9F0E080818260808380818160808323
:10384000E0E9F0E0808181608083E1EAF0E080815E
:1038500082608083808181608083E0EAF0E0808103
:1038600081608083E1E2F1E08081826080838081F9
:1038700081608083E0E2F1E0808181608083EAE71B
:10388000F0E0808184608083808182608083808199
:10389000816080838081806880831092C100089558
:1038A000863308F0865320917B00982F9870277FED
:1038B000922B90937B00877020910D0290E4299FBA
:1038C00090011124822B80937C0080917A00806487
:1038D00080937A0080917A0086FDFCCF80917800F9
:1038E0002091790090E0922B089590E0FC013197AF
:1038F000E231F10508F04CC0EE58FF4F0C94BA27A6
:10390000809180008F7703C0809180008F7D8093AD
:103910008000089580918000877FF9CF84B58F77EC
:1039200002C084B58F7D84BD08958091B0008F77EB
:1039300003C08091B0008F7D8093B0000895809186
:1039400090008F7707C0809190008F7D03C0809199
:103950009000877F8093900008958091A0008F77DA
:1039600007C08091A0008F7D03C08091A000877F59
:103970008093A0000895809120018F7707C08091E7
:1039800020018F7D03C080912001877F80932001DB
:103990000895CF93DF9390E0FC01EE5AFE4F2491FF
:1039A000FC01E856FE4F8491882349F190E0880F8E
:1039B000991FFC01EE5EFD4FA591B49188509E4F7A
:1039C000FC01C591D4919FB7611108C0F8948C9106
:1039D000209582238C93888182230AC0623051F41F
:1039E000F8948C91322F309583238C938881822B8D
:1039F000888304C0F8948C91822B8C939FBFDF91B5
:103A0000CF9108950F931F93CF93DF931F92CDB75C
:103A1000DEB7282F30E0F901E45FFE4F8491F90111
:103A2000EE5AFE4F1491F901E856FE4F049100231F
:103A3000C1F0882319F0698358DF6981E02FF0E035
:103A4000EE0FFF1FE850FE4FA591B4919FB7F89479
:103A50008C91611103C01095812301C0812B8C933F
:103A60009FBF0F90DF91CF911F910F9108950F93FA
:103A70001F93762F90E0FC01EE5AFE4F6491FC01FB
:103A8000E856FE4FE4917111762FF0E0EE0FFF1F24
:103A9000E252FE4F8591949189019A013F70472F20
:103AA0000E94EA01611571058105910531F06F5F92
:103AB0007F4F8F4F9F4F9F7003C060E070E0CB013E
:103AC0001F910F910895FC01818D228D90E0805C03
:103AD0009F4F821B91098F7399270895FC01918D47
:103AE000828D981731F0828DE80FF11D858D90E061
:103AF00008958FEF9FEF0895FC01918D828D9817A7
:103B000061F0828DDF01A80FB11D5D968C91928DC1
:103B10009F5F9F73928F90E008958FEF9FEF0895BE
:103B200080E39FE1892B39F080E090E0892B19F048
:103B300097D1811122C08BED9FE1892B39F080E074
:103B400090E0892B19F037D281111AC086E890E2F3
:103B5000892B39F080E090E0892B19F0D7D28111C0
:103B600012C081E391E2892B99F080E090E0892BEB
:103B700079F077D381110AC008950E940000DBCF4D
:103B80000E940000E3CF0E940000EBCF0C940000E5
:103B90000895FC01848DDF01A80FB11DA35ABF4F0A
:103BA0002C91848D90E001968F739927848FA6893C
:103BB000B7892C93A089B1898C9180648C93938D63
:103BC000848D981306C00288F389E02D80818F7D53
:103BD00080830895CF93DF93EC01888D8823C1F013
:103BE000EA89FB89808185FD05C0A889B9898C9106
:103BF00086FD0EC00FB607FCF5CF808185FFF2CFA2
:103C0000A889B9898C9185FFEDCFCE01C2DFE8CFBD
:103C1000DF91CF910895CF92DF92FF920F931F9380
:103C2000CF93DF931F92CDB7DEB76C0181E0D60151
:103C300058968C9358975B969C915B975C968C9169
:103C40005C97981307C05096ED91FC915197808135
:103C500085FD2DC0F601038D10E00F5F1F4F0F7320
:103C60001127F02EF601848DF81210C00FB607FC54
:103C7000F9CFD6015096ED91FC915197808185FF47
:103C8000F1CFC601698385DF6981ECCF838DE80FB1
:103C9000F11DE35AFF4F6083D6015B960C935B974F
:103CA0005296ED91FC915397808180620CC0D601B1
:103CB0005696ED91FC91579760835096ED91FC914B
:103CC000519780818064808381E090E00F90DF9144
:103CD000CF911F910F91FF90DF90CF900895BF92E9
:103CE000CF92DF92EF92FF92CF93DF93EC016A01C4
:103CF0007B01B22EE889F98982E08083411581EE4B
:103D0000580761057105A1F060E079E08DE390E06E
:103D1000A70196010E947C272150310941095109D0
:103D20005695479537952795211580E1380798F0E6
:103D3000E889F989108260E874E88EE190E0A701D3
:103D400096010E947C27215031094109510956955D
:103D5000479537952795EC85FD853083EE85FF8562
:103D60002083188EEC89FD89B082EA89FB898081E5
:103D700080618083EA89FB89808188608083EA8909
:103D8000FB89808180688083EA89FB8980818F7DBF
:103D90008083DF91CF91FF90EF90DF90CF90BF9025
:103DA00008951F920F920FB60F9211240BB60F9227
:103DB0002F938F939F93EF93FF93E091FA06F091E7
:103DC000FB068081E0910007F091010782FD12C09F
:103DD0009081809103078F5F8F7320910407821772
:103DE00051F0E0910307F0E0E651F94F958F809391
:103DF000030701C08081FF91EF919F918F912F91D7
:103E00000F900BBE0F900FBE0F901F9018951F9232
:103E10000F920FB60F9211240BB60F922F933F9370
:103E20004F935F936F937F938F939F93AF93BF93C2
:103E3000EF93FF938AEE96E0ACDEFF91EF91BF9196
:103E4000AF919F918F917F916F915F914F913F9132
:103E50002F910F900BBE0F900FBE0F901F901895D3
:103E60008AEE96E030DE21E0892B09F420E0822FF3
:103E700008951092ED061092EC0688EE93E0A0E013
:103E8000B0E08093EE069093EF06A093F006B09317
:103E9000F1068BE193E09093EB068093EA0685ECC4
:103EA00090E09093F7068093F60684EC90E0909370
:103EB000F9068093F80680EC90E09093FB068093DF
:103EC000FA0681EC90E09093FD068093FC0682EC6C
:103ED00090E09093FF068093FE0686EC90E090932E
:103EE00001078093000710920307109204071092B5
:103EF00005071092060708951F920F920FB60F92B2
:103F000011240BB60F922F938F939F93EF93FF93F0
:103F1000E0919707F09198078081E0919D07F091DB
:103F20009E0782FD12C090818091A0078F5F8F73E2
:103F30002091A107821751F0E091A007F0E0E95726
:103F4000F84F958F8093A00701C08081FF91EF917A
:103F50009F918F912F910F900BBE0F900FBE0F90DE
:103F60001F9018951F920F920FB60F9211240BB647
:103F70000F922F933F934F935F936F937F938F9302
:103F80009F93AF93BF93EF93FF9387E897E001DE92
:103F9000FF91EF91BF91AF919F918F917F916F9121
:103FA0005F914F913F912F910F900BBE0F900FBEDD
:103FB0000F901F90189587E897E085DD21E0892B09
:103FC00009F420E0822F089510928A071092890741
:103FD00088EE93E0A0E0B0E080938B0790938C078D
:103FE000A0938D07B0938E078BE193E090938807A1
:103FF000809387078DEC90E09093940780939307CC
:104000008CEC90E0909396078093950788EC90E075
:10401000909398078093970789EC90E090939A0784
:10402000809399078AEC90E090939C0780939B077C
:104030008EEC90E090939E0780939D071092A007CE
:104040001092A1071092A2071092A30708951F9241
:104050000F920FB60F9211240BB60F922F938F93DE
:104060009F93EF93FF93E0913408F091350880819E
:10407000E0913A08F0913B0882FD12C09081809156
:104080003D088F5F8F7320913E08821751F0E091B9
:104090003D08F0E0EC5DF74F958F80933D0801C03F
:1040A0008081FF91EF919F918F912F910F900BBE87
:1040B0000F900FBE0F901F9018951F920F920FB682
:1040C0000F9211240BB60F922F933F934F935F9350
:1040D0006F937F938F939F93AF93BF93EF93FF93D0
:1040E00084E298E056DDFF91EF91BF91AF919F91EF
:1040F0008F917F916F915F914F913F912F910F9091
:104100000BBE0F900FBE0F901F90189584E298E0A1
:10411000DADC21E0892B09F420E0822F0895109247
:1041200027081092260888EE93E0A0E0B0E0809384
:10413000280890932908A0932A08B0932B088BE1B4
:1041400093E0909325088093240885ED90E0909368
:1041500031088093300884ED90E090933308809389
:10416000320880ED90E0909335088093340881ED1B
:1041700090E0909337088093360882ED90E090931A
:1041800039088093380886ED90E090933B0880933F
:104190003A0810923D0810923E0810923F08109283
:1041A000400808951F920F920FB60F9211240BB67C
:1041B0000F922F938F939F93EF93FF93E091D108EA
:1041C000F091D2088081E091D708F091D80882FD63
:1041D00012C090818091DA088F5F8F732091DB0885
:1041E000821751F0E091DA08F0E0EF53F74F958F26
:1041F0008093DA0801C08081FF91EF919F918F91A8
:104200002F910F900BBE0F900FBE0F901F9018951F
:104210001F920F920FB60F9211240BB60F922F938D
:104220003F934F935F936F937F938F939F93AF933E
:10423000BF93EF93FF9381EC98E0ABDCFF91EF919C
:10424000BF91AF919F918F917F916F915F914F91AE
:104250003F912F910F900BBE0F900FBE0F901F90AC
:10426000189581EC98E02FDC21E0892B09F420E0FF
:10427000822F08951092C4081092C30888EE93E02C
:10428000A0E0B0E08093C5089093C608A093C7084B
:10429000B093C8088BE193E09093C2088093C10863
:1042A00085E391E09093CE088093CD0884E391E07C
:1042B0009093D0088093CF0880E391E09093D20848
:1042C0008093D10881E391E09093D4088093D30840
:1042D00082E391E09093D6088093D50886E391E03D
:1042E0009093D8088093D7081092DA081092DB08D0
:1042F0001092DC081092DD080895CF92DF92EF92C1
:10430000FF920F931F93CF93DF937C016A01EB0120
:1043100000E010E00C151D0571F06991D701ED91D9
:10432000FC910190F081E02DC7011995892B19F0BE
:104330000F5F1F4FEFCFC801DF91CF911F910F91FA
:10434000FF90EF90DF90CF9008956115710581F097
:10435000DB010D900020E9F7AD0141505109461BEA
:10436000570BDC01ED91FC910280F381E02D199453
:1043700080E090E00895EF92FF920F931F93CF9308
:10438000DF938C017B01C0E0D0E0F701EC0FFD1F53
:104390006491662359F0F801A081B181ED91FC91FF
:1043A000C8011995892B11F02196EFCFCE01DF912D
:1043B000CF911F910F91FF90EF900895DC01ED9147
:1043C000FC91DB0114964D915C9115976D917C9158
:1043D0000280F381E02D199467E273E0B6CF0F936A
:1043E0001F93CF93DF93EC01C6DF8C01CE01F4DF86
:1043F000800F911FDF91CF911F910F9108950F931F
:104400001F93CF93DF93EC01A0DF8C01CE01E4DF9B
:10441000800F911FDF91CF911F910F9108954F92BF
:104420005F926F927F92AF92BF92CF92DF92EF92A4
:10443000FF920F931F93CF93DF93CDB7DEB7290180
:104440003A01621B730B840B950B2A893B894C89BB
:104450005D892A193B094C095D092A8B3B8B4C8BE2
:104460005D8B9B01AC016A897B898C899D8915D5FF
:10447000E418F50806091709A80197015FD52A0D68
:104480003B1D4C1D5D1DCA01B901DF91CF911F91EC
:104490000F91FF90EF90DF90CF90BF90AF907F9003
:1044A0006F905F904F900895FC01808191813DC68F
:1044B000CF93DF93EC0188819981009709F035D67D
:1044C000198218821D821C821B821A82DF91CF9171
:1044D00008950F931F93CF93DF93EC018B016F5FD0
:1044E0007F4F88819981B0D6009731F09983888376
:1044F0001B830A8381E001C080E0DF91CF911F918F
:104500000F910895CF93DF93EC0188819981892BD6
:1045100029F08A819B818617970758F4CE01D9DF4D
:10452000882341F08C819D81892B19F4E881F981E0
:10453000108281E0DF91CF910895EF92FF920F9367
:104540001F93CF93DF93EC017B018A01BA01DADF7D
:10455000811103C0CE01ACDF06C01D830C83B701FF
:1045600088819981C0D7CE01DF91CF911F910F91A2
:10457000FF90EF900895FC01118210821382128245
:10458000158214826115710551F0FB010190002024
:10459000E9F7AF0141505109461B570BCECF0895A3
:1045A000CF93DF93EC01FB018617970751F06081F1
:1045B00071816115710521F044815581BEDF01C013
:1045C00077DFCE01DF91CF910895FC011182108237
:1045D0001382128215821482E3CFCF93DF93EC0112
:1045E0006115710559F0FB0101900020E9F7AF0159
:1045F00041505109461B570BA0DF01C059DFCE01C6
:10460000DF91CF9108950F931F93CF93DF93CDB791
:10461000DEB762970FB6F894DEBF0FBECDBF8C0138
:10462000CB01F8011182108213821282158214824A
:1046300050E0BE016F5F7F4F86D7BE016F5F7F4F37
:10464000C801CBDF62960FB6F894DEBF0FBECDBFB8
:10465000DF91CF911F910F9108950F931F93CF93E7
:10466000DF93CDB7DEB761970FB6F894DEBF0FBE0C
:10467000CDBF8C01CB01F80111821082138212820E
:104680001582148250E0BE016F5F7F4F8DD7BE014F
:104690006F5F7F4FC801A1DF61960FB6F894DEBF50
:1046A0000FBECDBFDF91CF911F910F910895EF9273
:1046B000FF920F931F93CF93DF93CDB7DEB7A197F0
:1046C0000FB6F894DEBF0FBECDBF7C01CB01BA019F
:1046D000F70111821082138212821582148242E045
:1046E000420F8E010F5F1F4F68D4BC01C70175DFF9
:1046F000A1960FB6F894DEBF0FBECDBFDF91CF916C
:104700001F910F91FF90EF900895EF92FF920F93FA
:104710001F93CF93DF93EC017B010C811D81611509
:10472000710511F480E014C04115510581F0040FAA
:10473000151FB801E7DE8823A9F3288139818C8110
:104740009D81B701820F931FCED61D830C8381E01C
:10475000DF91CF911F910F91FF90EF900895CF932C
:10476000DF931F921F92CDB7DEB769831A8241E0B3
:1047700050E0BE016F5F7F4FC8DF0F900F90DF9159
:10478000CF910895CF93DF93EC01FB0144815581D4
:1047900060817181BADF811102C0CE0189DECE0154
:1047A000DF91CF910895CF93DF93EC0161157105EF
:1047B00061F0FB0101900020E9F7AF014150510980
:1047C000461B570BA2DF811102C0CE0171DECE0164
:1047D000DF91CF910895CF93DF93DC01ED91FC91B0
:1047E000EB01A881B981309711F01097C9F41097A7
:1047F00059F0EB012C813D81232B31F08C9190E01D
:1048000091958195910913C0309779F0DC01149648
:104810008D919C911597892B41F0808190E007C084
:10482000BD01CF01DF91CF9155C680E090E0DF91CF
:10483000CF910895FC0144815581FB01248135818C
:104840004217530739F4C7DF21E0892B09F020E034
:10485000822F089580E00895FC0124813581232B67
:1048600031F421E06115710599F0FB0108C0FC01EC
:10487000808191816115710531F421E0FC01808115
:10488000882331F004C026D621E0892B09F020E0EE
:10489000822F0895FC01248135816217730748F443
:1048A00080819181009729F0FC01E60FF71F80813C
:1048B000089580E00895EECFCF93DF93FC018481CB
:1048C00095814817590770F4C081D181FB0160813F
:1048D0007181CE01840F951F1CD6009719F08C1B97
:1048E0009D0B02C08FEF9FEFDF91CF91089540E0C5
:1048F00050E0E2CFBF92CF92DF92EF92FF920F9300
:104900001F93CF93DF936C017B01EA018901241788
:10491000350720F48D2FE901042F182F69E273E089
:10492000C60129DED70114968D919C911597C81761
:10493000D907C0F48017910708F48C01D701ED91D5
:10494000FC911197E00FF11FB08010826D917C9166
:104950006C0F7D1FC60141DED701ED91FC91E00F88
:10496000F11FB082C601DF91CF911F910F91FF908F
:10497000EF90DF90CF90BF900895FC0180819181EE
:10498000009709F065C560E070E0CB0108950895D7
:104990000E94EE1BFCDF0E949706C0E9DDE10E9449
:1049A000580D2097E1F3BCD8FACF08955058BB2793
:1049B000AA270ED0D1C1C2D130F0C7D120F031F436
:1049C0009F3F11F41EF4B7C10EF4E095E7FB9FC1C1
:1049D000E92FD3D180F3BA176207730784079507CD
:1049E00018F071F49EF5EBC10EF4E0950B2EBA2F82
:1049F000A02D0B01B90190010C01CA01A0011124E5
:104A0000FF27591B99F0593F50F4503E68F11A1690
:104A1000F040A22F232F342F4427585FF3CF469521
:104A200037952795A795F0405395C9F77EF41F1643
:104A3000BA0B620B730B840BBAF09150A1F0FF0F0D
:104A4000BB1F661F771F881FC2F70EC0BA0F621FF9
:104A5000731F841F48F4879577956795B795F795E9
:104A60009E3F08F0B3CF9395880F08F09927EE0F7B
:104A700097958795089527D108F481E008950CD083
:104A80006BC163D140F05AD130F021F45F3F19F08F
:104A90003EC1511195C14FC170D198F39923C9F30B
:104AA0005523B1F3951B550BBB27AA276217730734
:104AB000840738F09F5F5F4F220F331F441FAA1FE8
:104AC000A9F333D00E2E3AF0E0E830D091505040A8
:104AD000E695001CCAF729D0FE2F27D0660F771F56
:104AE000881FBB1F261737074807AB07B0E809F038
:104AF000BB0B802DBF01FF2793585F4F2AF09E3FCD
:104B0000510568F004C15CC15F3FECF3983EDCF3F3
:104B1000869577956795B795F7959F5FC9F7880F45
:104B2000911D9695879597F90895E1E0660F771F97
:104B3000881FBB1F621773078407BA0720F0621B28
:104B4000730B840BBA0BEE1F88F7E095089504D021
:104B50006894B11135C1089518D188F09F5790F02D
:104B6000B92F9927B751A0F0D1F0660F771F881F92
:104B7000991F1AF0BA95C9F712C0B13081F01FD150
:104B8000B1E008951CC1672F782F8827B85F39F0EE
:104B9000B93FCCF3869577956795B395D9F73EF4F1
:104BA00090958095709561957F4F8F4F9F4F089599
:104BB000E89409C097FB3EF49095809570956195B7
:104BC0007F4F8F4F9F4F9923A9F0F92F96E9BB276D
:104BD0009395F695879577956795B795F111F8CFE9
:104BE000FAF4BB0F11F460FF1BC06F5F7F4F8F4F54
:104BF0009F4F16C0882311F096E911C0772321F04A
:104C00009EE8872F762F05C0662371F096E8862FE1
:104C100070E060E02AF09A95660F771F881FDAF738
:104C2000880F9695879597F9089588D018F011F018
:104C30008CD038F480C0C4C0E92F9FD0B0F3552386
:104C4000C9F3E7FB6217730784079507A8F199F387
:104C5000E92FFF2788232AF03197660F771F881FD7
:104C6000DAF7952F5527442332F091505040220F08
:104C7000331F441FD2F7BB27E91BF50B621B730BD5
:104C8000840BB109C1F222F4620F731F841FB11D9E
:104C900031972AF0660F771F881FBB1FEFCF915007
:104CA00050405AF041F0882332F0660F771F881F7A
:104CB00091505040C1F7939530C086957795679590
:104CC0009F5FD9F7F8CF990F0008550FAA0BE0E8BE
:104CD000FEEF16161706E807F907C0F012161306BE
:104CE000E407F50798F0621B730B840B950B39F4FE
:104CF0000A2661F0232B242B252B21F408950A2664
:104D000009F4A140A6958FEF811D811D089597F9A3
:104D10009F6780E870E060E008959F3F31F0915018
:104D200020F4879577956795B795880F911D96958F
:104D3000879597F908959FEF80EC089500240A94D1
:104D40001616170618060906089500240A94121666
:104D50001306140605060895092E0394000C11F499
:104D6000882352F0BB0F40F4BF2B11F460FF04C046
:104D70006F5F7F4F8F4F9F4F089557FD9058440F9F
:104D8000551F59F05F3F71F04795880F97FB991FAA
:104D900061F09F3F79F08795089512161306140667
:104DA000551FF2CF4695F1DF08C0161617061806F4
:104DB000991FF1CF86957105610508940895E894CF
:104DC000BB2766277727CB0197F908957CDF08F486
:104DD0008FEF08950BD0C0CFB1DF28F0B6DF18F009
:104DE000952309F094CFA7CF1124EACFC6DFA0F313
:104DF000959FD1F3950F50E0551F629FF001729F70
:104E0000BB27F00DB11D639FAA27F00DB11DAA1F8E
:104E1000649F6627B00DA11D661F829F2227B00DDB
:104E2000A11D621F739FB00DA11D621F839FA00D66
:104E3000611D221F749F3327A00D611D231F849FB6
:104E4000600D211D822F762F6A2F11249F5750400D
:104E50008AF0E1F088234AF0EE0FFF1FBB1F661FA8
:104E6000771F881F91505040A9F79E3F510570F061
:104E70004ECFA6CF5F3FECF3983EDCF38695779557
:104E80006795B795F795E7959F5FC1F7FE2B880F5C
:104E9000911D9695879597F90895DB018F939F93C0
:104EA0006FD0BF91AF91A29F800D911DA39F900DD8
:104EB000B29F900D11240895991B79E004C0991FA9
:104EC000961708F0961B881F7A95C9F78095089564
:104ED000AA1BBB1B51E107C0AA1FBB1FA617B70720
:104EE00010F0A61BB70B881F991F5A95A9F780953C
:104EF0009095BC01CD010895A1E21A2EAA1BBB1BFF
:104F0000FD010DC0AA1FBB1FEE1FFF1FA217B30795
:104F1000E407F50720F0A21BB30BE40BF50B661FAB
:104F2000771F881F991F1A9469F76095709580956F
:104F300090959B01AC01BD01CF010895052E97FB13
:104F400016F400940FD057FD05D0D6DF07FC02D031
:104F500046F408C050954095309521953F4F4F4FEE
:104F60005F4F089590958095709561957F4F8F4F15
:104F70009F4F0895EE0FFF1F0590F491E02D1994B7
:104F80000DD0A59F900DB49F900DA49F800D911DF5
:104F9000112408950790F691E02D1994A29FB00175
:104FA000B39FC001A39F700D811D1124911DB29F5D
:104FB000700D811D1124911D0895EF920F931F9381
:104FC000CF93DF93E80147FF02C034E101C034E032
:104FD000E42FFF27E7FDF095F7FF03C0F195E1957A
:104FE000F109E32E022F2E2FAE0101D3CE01DF9166
:104FF000CF911F910F91EF900895CF93DF9382305F
:10500000910510F482E090E0E0916009F09161096F
:1050100020E030E0A0E0B0E0309739F140815181EC
:1050200048175907B8F04817590771F482819381DE
:10503000109729F013969C938E9312972CC09093FF
:1050400061098093600927C02115310531F04217AD
:10505000530718F0A901DB0101C0EF019A01BD015E
:10506000DF010280F381E02DD7CF21153105F9F062
:10507000281B390B2430310580F48A819B8161150E
:10508000710521F0FB019383828304C09093610931
:1050900080936009FE01329644C0FE01E20FF31FC7
:1050A0008193919322503109398328833AC020910A
:1050B0005E0930915F09232B41F420910202309167
:1050C000030230935F0920935E0920910002309122
:1050D00001022115310541F42DB73EB7409104027C
:1050E00050910502241B350BE0915E09F0915F0998
:1050F000E217F307A0F42E1B3F0B2817390778F0AF
:10510000AC014E5F5F4F2417350748F04E0F5F1F0D
:1051100050935F0940935E098193919302C0E0E050
:10512000F0E0CF01DF91CF910895CF93DF93009707
:1051300009F487C0FC01329713821282C091600982
:10514000D0916109209781F420813181280F391F86
:1051500080915E0990915F098217930779F5F0932A
:105160005F09E0935E096DC0DE0120E030E0AE171C
:10517000BF0750F412964D915C9113979D01411514
:10518000510509F1DA01F3CFB383A2834081518144
:10519000840F951F8A179B0771F48D919C9111972D
:1051A000840F951F02969183808312968D919C9116
:1051B0001397938382832115310529F4F0936109B4
:1051C000E09360093EC0D9011396FC93EE931297C9
:1051D0004D915D91A40FB51FEA17FB0779F480810B
:1051E0009181840F951F0296D90111969C938E93FD
:1051F0008281938113969C938E931297E0E0F0E066
:105200008A819B81009719F0FE01EC01F9CFCE0154
:10521000029628813981820F931F20915E09309177
:105220005F092817390769F4309729F4109261094A
:105230001092600902C013821282D0935F09C0935A
:105240005E09DF91CF9108956F927F928F929F9226
:10525000AF92BF92CF92DF92EF92FF920F931F9384
:10526000CF93DF93EC01CB01209779F4DF91CF91BD
:105270001F910F91FF90EF90DF90CF90BF90AF9074
:105280009F908F907F906F90B8CEFE01E60FF71F32
:105290009E0122503109E217F30708F4A8C0D90192
:1052A0000D911C91119706171707B0F005301105E5
:1052B00008F49BC0A801445051094617570708F449
:1052C00094C002501109061B170B019311936D93A3
:1052D0007C93CF012ADF89C05B01A01AB10A4E017D
:1052E000800E911EA0916009B0916109612C712C12
:1052F00060E070E0109709F449C0A815B905C9F538
:10530000ED90FC901197670142E0C40ED11CCA14C5
:10531000DB0478F147018A189B08640142E0C40E5F
:10532000D11C1296BC9012971396AC91B5E0CB1697
:10533000D10440F0B282A38391828082D9018D93FF
:105340009C9309C00E5F1F4F0E0D1F1DF9011183A5
:105350000083EB2DFA2F6115710531F0DB011396F7
:10536000FC93EE93129741C0F0936109E0936009BA
:105370003CC06D917C9111976616770608F43B014D
:10538000BD0112960D90BC91A02DB4CF60915E0925
:1053900070915F0968157905E9F468167906D0F40B
:1053A00040910002509101024115510541F44DB761
:1053B0005EB76091040270910502461B570BE4171B
:1053C000F507A8F4F0935F09E0935E09F901918372
:1053D00080830BC012DE7C01009749F0A801BE015A
:1053E00065D0CE01A2DEC70104C0CE0102C080E0BC
:1053F00090E0DF91CF911F910F91FF90EF90DF90A0
:10540000CF90BF90AF909F908F907F906F900895B6
:105410006627772769C2FC0188279927E89421919C
:105420002032E9F3293010F02E30C8F32B3239F056
:105430002D3231F4689403C0AFD0820F911D2191B9
:1054400020532A30C8F31EF4909581959F4F0895FC
:105450001F93FC0199278827BC01E8941191103211
:10546000E9F3193010F01E30C8F31B3249F01D3239
:1054700041F4689405C07BD0610F711D811D911DA1
:10548000119110531A30B8F33EF4909580957095B1
:1054900061957F4F8F4F9F4F1F910895911166C463
:1054A000803219F089508550D0F70895FB01DC0156
:1054B00002C001900D9241505040D8F70895FC0170
:1054C0008191861721F08823D9F79927089531977C
:1054D000CF010895FB01DC018D910190801901102D
:1054E000D9F3990B0895FB01DC0101900D92002086
:1054F000E1F70895FB01DC014150504048F0019074
:105500000D920020C9F701C01D9241505040E0F7B4
:105510000895FB0151915523A9F0BF01DC014D9184
:1055200045174111E1F759F4CD010190002049F0F0
:105530004D9140154111C9F3FB014111EFCF81E0BD
:1055400090E0019708954532510518F4423008F073
:1055500004C0FB011082CB010895BB274A3031F40F
:10556000992322F4BDE2909581959F4F28C0592F31
:10557000482F372F262F660F771F881F991F660F1A
:10558000771F881F991F620F731F841F951F660F57
:10559000771F881F991F08957AE0979F902D879F06
:1055A000802D910D112408954532510518F4423093
:1055B00008F004C0FB011082CB010895BB27FB015A
:1055C0005527AA27880F991FAA1FA41710F0A41BFC
:1055D00083955051B9F7A05DAA3308F0A95DA19356
:1055E000009779F7B111B1931192CB01DAC36F92A1
:1055F0007F929F92AF92BF92CF92DF92EF92FF92F3
:105600000F931F93CF93DF93CDB7DEB729970FB6D4
:10561000F894DEBF0FBECDBF6A01B22E102F0C333F
:1056200020F4FF24F394F00E02C04CE3F42E0F2D6F
:1056300027E0AE014F5F5F4FC1D27981272F2970DC
:10564000213031F0E1FC06C0E0FC06C060E005C09E
:105650006DE203C06BE201C060E2AE2DA07173FF8A
:1056600036C0662311F084E001C083E08B1510F48E
:10567000B81A01C0B12CA1110BC0F6018B2D90E21C
:10568000882319F091938150FBCFCB0CD11CB12C06
:10569000662331F0F601608396012F5F3F4F690169
:1056A000C6010396E2FE05C02EE4F601208331E434
:1056B00004C02EE6F601208331E631832283FC010B
:1056C0002B2D30E22223F1F131932150FBCF72FFD9
:1056D00040C0662311F084E001C083E08B1510F414
:1056E000B81A01C0B12CA1110BC0F6018B2D90E2AC
:1056F000882319F091938150FBCFCB0CD11CB12C96
:10570000662331F0F601608396012F5F3F4F6901F8
:10571000C6010396E2FE07C029E4F60120832EE4C9
:10572000218326E406C029E6F60120832EE62183A4
:1057300026E62283FC012B2D30E2222319F031933F
:105740002150FBCFFC01EB0DF11D10828EEF9FEF7E
:10575000B7C0B1E0611101C0B0E04B2F50E01816A6
:10576000190624F49C012F5F3F4F02C021E030E076
:10577000240F351F112329F0412F50E04F5F5F4F59
:1057800002C040E050E0420F531F2B2D30E0421783
:10579000530714F4B41A01C0B12C2E2D287159F4FA
:1057A000F6012B2D30E2222319F031932150FBCF4B
:1057B000CB0CD11CB12CBB2331F0F60160839601D8
:1057C0002F5F3F4F6901A1110BC0F6012B2D30E374
:1057D000222319F031932150FBCFCB0CD11CB12CDB
:1057E000F80E0A81372F3071A32E74FF03C00133E6
:1057F00009F4FA941F142CF42F2D293018F028E006
:1058000001C021E0682F392F97FF02C060E030E02F
:10581000462F532F612C712C3EE2932EBC01621B4C
:1058200071099B01DC01A41BB50BE1E0F0E0EC0F7A
:10583000FD1FAE0FBF1FE12EF12CF194E194F10892
:105840004F3FFFEF5F0731F4F6019082B6016F5FC3
:105850007F4F6B01841795074CF02417350734F4FC
:10586000BD01660D771DFB01118101C010E34150A0
:105870005109FFEF6F1A7F0AB6016F5F7F4F4E1518
:105880005F0524F0F60110836B01DACF4817590742
:1058900039F4063320F4053319F4A11001C011E3E3
:1058A000F6011083FB018B2D90E2882319F0919370
:1058B0008150FBCFFB01EB0DF11D108280E090E0E9
:1058C00029960FB6F894DEBF0FBECDBFDF91CF9102
:1058D0001F910F91FF90EF90DF90CF90BF90AF900E
:1058E0009F907F906F9008958F929F92AF92BF92FA
:1058F000CF92DF92EF92FF920F931F93CF93DF939C
:105900008B016115710521F0DB018C9311969C933D
:10591000EC015E01BFEFAB1ABB0A7501C8808C2D8C
:1059200090E0BCDD892B11F0E501F3CFEDE2CE1262
:1059300008C07E01F2E0EF0EF11CC980DD24D39493
:1059400009C02BE2C21205C07E0142E0E40EF11C48
:10595000C980D12CE701219743E050E064E372E075
:10596000CE0107D2892BB9F4239645E050E06FE2CF
:1059700072E0CE01FED1892B09F42596011511059F
:1059800019F0D801CD93DC93D11002C160E070E032
:1059900080E89FE706C143E050E06CE272E0CE0190
:1059A000E8D1892B59F40115110509F4F6C0B2E0CC
:1059B000EB0EF11CF801F182E082EFC0F70160E02C
:1059C00070E0CB01C0E0D0E07F01A0EDAA2EAC0CCE
:1059D00029E02A1528F14D2D4260B42E2D2D287076
:1059E000D2FE04C0211124C0219622C0211121978A
:1059F000A5E0B0E09B01AC01C3DA660F771F881FFA
:105A0000991F6A0D711D811D911D6839A9E97A07D9
:105A10008A07A9E19A0760F0BD2DB660BB2E08C0C9
:105A20002EEFA2120AC0D3FC50C04D2D4860B42EF8
:105A30003196D701CC90DB2CC7CF2C2D2F7D253470
:105A400009F043C0A081AD3241F4BD2DB061DB2E21
:105A50007F0122E0E20EF11C0CC07F01AB3231F07D
:105A60004FEFE41AF40A21E030E006C0A2E0EA0EAB
:105A7000F11CA18122E030E0A053AA3018F0E21A14
:105A8000F30A23C0F70120E030E02038BCE03B07F8
:105A90005CF4A901440F551F440F551F240F351FF7
:105AA000220F331F2A0F311DAF014F5F5F4F7A0165
:105AB000A081A053AA3010F4FA01E7CFD4FE03C0AE
:105AC000319521953109C20FD31FD1FE09C00115AF
:105AD000110531F0E1E0EE1AF108D801ED92FC92E7
